{
  "_format": "hh-sol-artifact-1",
  "contractName": "WavePortal",
  "sourceName": "contracts/WavePortal.sol",
  "abi": [
    {
      "inputs": [],
      "stateMutability": "payable",
      "type": "constructor"
    },
    {
      "anonymous": false,
      "inputs": [
        {
          "indexed": true,
          "internalType": "address",
          "name": "from",
          "type": "address"
        },
        {
          "indexed": false,
          "internalType": "uint256",
          "name": "timestamp",
          "type": "uint256"
        },
        {
          "indexed": false,
          "internalType": "string",
          "name": "message",
          "type": "string"
        }
      ],
      "name": "NewWave",
      "type": "event"
    },
    {
      "inputs": [],
      "name": "getAllWaves",
      "outputs": [
        {
          "components": [
            {
              "internalType": "address",
              "name": "waver",
              "type": "address"
            },
            {
              "internalType": "string",
              "name": "message",
              "type": "string"
            },
            {
              "internalType": "uint256",
              "name": "timestamp",
              "type": "uint256"
            }
          ],
          "internalType": "struct WavePortal.Wave[]",
          "name": "",
          "type": "tuple[]"
        }
      ],
      "stateMutability": "view",
      "type": "function"
    },
    {
      "inputs": [],
      "name": "getTotalWaves",
      "outputs": [
        {
          "internalType": "uint256",
          "name": "",
          "type": "uint256"
        }
      ],
      "stateMutability": "view",
      "type": "function"
    },
    {
      "inputs": [],
      "name": "showCount",
      "outputs": [],
      "stateMutability": "view",
      "type": "function"
    },
    {
      "inputs": [
        {
          "internalType": "string",
          "name": "_message",
          "type": "string"
        }
      ],
      "name": "wave",
      "outputs": [],
      "stateMutability": "nonpayable",
      "type": "function"
    }
  ],
  "bytecode": "0x6080604052620000336040518060600160405280602381526020016200142b602391396200003960201b620005281760201c565b620001c3565b620000d9816040516024016200005091906200019f565b6040516020818303038152906040527f41304fac000000000000000000000000000000000000000000000000000000007bffffffffffffffffffffffffffffffffffffffffffffffffffffffff19166020820180517bffffffffffffffffffffffffffffffffffffffffffffffffffffffff8381831617835250505050620000dc60201b60201c565b50565b60008151905060006a636f6e736f6c652e6c6f679050602083016000808483855afa5050505050565b600081519050919050565b600082825260208201905092915050565b60005b838110156200014157808201518184015260208101905062000124565b60008484015250505050565b6000601f19601f8301169050919050565b60006200016b8262000105565b62000177818562000110565b93506200018981856020860162000121565b62000194816200014d565b840191505092915050565b60006020820190508181036000830152620001bb81846200015e565b905092915050565b61125880620001d36000396000f3fe608060405234801561001057600080fd5b506004361061004c5760003560e01c8063449d46c0146100515780635f0b84441461006d5780639a2cdc0814610077578063bd43a90814610095575b600080fd5b61006b60048036038101906100669190610976565b6100b3565b005b610075610328565b005b61007f61038c565b60405161008c91906109d8565b60405180910390f35b61009d6103d7565b6040516100aa9190610bd4565b60405180910390f35b60016000808282546100c59190610c25565b925050819055506100d46105c1565b6101146040518060400160405280601681526020017f257320776176656420772f206d657373616765202573000000000000000000008152503383610619565b600260405180606001604052803373ffffffffffffffffffffffffffffffffffffffff16815260200183815260200142815250908060018154018082558091505060019003906000526020600020906003020160009091909190915060008201518160000160006101000a81548173ffffffffffffffffffffffffffffffffffffffff021916908373ffffffffffffffffffffffffffffffffffffffff16021790555060208201518160010190816101cc9190610e65565b506040820151816002015550503373ffffffffffffffffffffffffffffffffffffffff167f5f7e16dc676677766a70e9c5628aa6c54ddb8b6e5188e2ae1e1f17f1ffbea7164283604051610221929190610f81565b60405180910390a26000655af3107a4000905047811115610277576040517f08c379a000000000000000000000000000000000000000000000000000000000815260040161026e90611023565b60405180910390fd5b60003373ffffffffffffffffffffffffffffffffffffffff168260405161029d90611074565b60006040518083038185875af1925050503d80600081146102da576040519150601f19603f3d011682016040523d82523d6000602084013e6102df565b606091505b5050905080610323576040517f08c379a000000000000000000000000000000000000000000000000000000000815260040161031a906110fb565b60405180910390fd5b505050565b61038a6040518060600160405280602381526020016112006023913933600160003373ffffffffffffffffffffffffffffffffffffffff1673ffffffffffffffffffffffffffffffffffffffff168152602001908152602001600020546106b8565b565b60006103cf6040518060400160405280601781526020017f5765206861766520256420746f74616c20776176657321000000000000000000815250600054610757565b600054905090565b60606002805480602002602001604051908101604052809291908181526020016000905b8282101561051f57838290600052602060002090600302016040518060600160405290816000820160009054906101000a900473ffffffffffffffffffffffffffffffffffffffff1673ffffffffffffffffffffffffffffffffffffffff1673ffffffffffffffffffffffffffffffffffffffff16815260200160018201805461048490610c88565b80601f01602080910402602001604051908101604052809291908181526020018280546104b090610c88565b80156104fd5780601f106104d2576101008083540402835291602001916104fd565b820191906000526020600020905b8154815290600101906020018083116104e057829003601f168201915b50505050508152602001600282015481525050815260200190600101906103fb565b50505050905090565b6105be8160405160240161053c919061111b565b6040516020818303038152906040527f41304fac000000000000000000000000000000000000000000000000000000007bffffffffffffffffffffffffffffffffffffffffffffffffffffffff19166020820180517bffffffffffffffffffffffffffffffffffffffffffffffffffffffff83818316178352505050506107f3565b50565b60018060003373ffffffffffffffffffffffffffffffffffffffff1673ffffffffffffffffffffffffffffffffffffffff16815260200190815260200160002060008282546106109190610c25565b92505081905550565b6106b38383836040516024016106319392919061114c565b6040516020818303038152906040527fe0e9ad4f000000000000000000000000000000000000000000000000000000007bffffffffffffffffffffffffffffffffffffffffffffffffffffffff19166020820180517bffffffffffffffffffffffffffffffffffffffffffffffffffffffff83818316178352505050506107f3565b505050565b6107528383836040516024016106d093929190611191565b6040516020818303038152906040527f0d26b925000000000000000000000000000000000000000000000000000000007bffffffffffffffffffffffffffffffffffffffffffffffffffffffff19166020820180517bffffffffffffffffffffffffffffffffffffffffffffffffffffffff83818316178352505050506107f3565b505050565b6107ef828260405160240161076d9291906111cf565b6040516020818303038152906040527fb60e72cc000000000000000000000000000000000000000000000000000000007bffffffffffffffffffffffffffffffffffffffffffffffffffffffff19166020820180517bffffffffffffffffffffffffffffffffffffffffffffffffffffffff83818316178352505050506107f3565b5050565b60008151905060006a636f6e736f6c652e6c6f679050602083016000808483855afa5050505050565b6000604051905090565b600080fd5b600080fd5b600080fd5b600080fd5b6000601f19601f8301169050919050565b7f4e487b7100000000000000000000000000000000000000000000000000000000600052604160045260246000fd5b6108838261083a565b810181811067ffffffffffffffff821117156108a2576108a161084b565b5b80604052505050565b60006108b561081c565b90506108c1828261087a565b919050565b600067ffffffffffffffff8211156108e1576108e061084b565b5b6108ea8261083a565b9050602081019050919050565b82818337600083830152505050565b6000610919610914846108c6565b6108ab565b90508281526020810184848401111561093557610934610835565b5b6109408482856108f7565b509392505050565b600082601f83011261095d5761095c610830565b5b813561096d848260208601610906565b91505092915050565b60006020828403121561098c5761098b610826565b5b600082013567ffffffffffffffff8111156109aa576109a961082b565b5b6109b684828501610948565b91505092915050565b6000819050919050565b6109d2816109bf565b82525050565b60006020820190506109ed60008301846109c9565b92915050565b600081519050919050565b600082825260208201905092915050565b6000819050602082019050919050565b600073ffffffffffffffffffffffffffffffffffffffff82169050919050565b6000610a4a82610a1f565b9050919050565b610a5a81610a3f565b82525050565b600081519050919050565b600082825260208201905092915050565b60005b83811015610a9a578082015181840152602081019050610a7f565b60008484015250505050565b6000610ab182610a60565b610abb8185610a6b565b9350610acb818560208601610a7c565b610ad48161083a565b840191505092915050565b610ae8816109bf565b82525050565b6000606083016000830151610b066000860182610a51565b5060208301518482036020860152610b1e8282610aa6565b9150506040830151610b336040860182610adf565b508091505092915050565b6000610b4a8383610aee565b905092915050565b6000602082019050919050565b6000610b6a826109f3565b610b7481856109fe565b935083602082028501610b8685610a0f565b8060005b85811015610bc25784840389528151610ba38582610b3e565b9450610bae83610b52565b925060208a01995050600181019050610b8a565b50829750879550505050505092915050565b60006020820190508181036000830152610bee8184610b5f565b905092915050565b7f4e487b7100000000000000000000000000000000000000000000000000000000600052601160045260246000fd5b6000610c30826109bf565b9150610c3b836109bf565b9250828201905080821115610c5357610c52610bf6565b5b92915050565b7f4e487b7100000000000000000000000000000000000000000000000000000000600052602260045260246000fd5b60006002820490506001821680610ca057607f821691505b602082108103610cb357610cb2610c59565b5b50919050565b60008190508160005260206000209050919050565b60006020601f8301049050919050565b600082821b905092915050565b600060088302610d1b7fffffffffffffffffffffffffffffffffffffffffffffffffffffffffffffffff82610cde565b610d258683610cde565b95508019841693508086168417925050509392505050565b6000819050919050565b6000610d62610d5d610d58846109bf565b610d3d565b6109bf565b9050919050565b6000819050919050565b610d7c83610d47565b610d90610d8882610d69565b848454610ceb565b825550505050565b600090565b610da5610d98565b610db0818484610d73565b505050565b5b81811015610dd457610dc9600082610d9d565b600181019050610db6565b5050565b601f821115610e1957610dea81610cb9565b610df384610cce565b81016020851015610e02578190505b610e16610e0e85610cce565b830182610db5565b50505b505050565b600082821c905092915050565b6000610e3c60001984600802610e1e565b1980831691505092915050565b6000610e558383610e2b565b9150826002028217905092915050565b610e6e82610a60565b67ffffffffffffffff811115610e8757610e8661084b565b5b610e918254610c88565b610e9c828285610dd8565b600060209050601f831160018114610ecf5760008415610ebd578287015190505b610ec78582610e49565b865550610f2f565b601f198416610edd86610cb9565b60005b82811015610f0557848901518255600182019150602085019450602081019050610ee0565b86831015610f225784890151610f1e601f891682610e2b565b8355505b6001600288020188555050505b505050505050565b600082825260208201905092915050565b6000610f5382610a60565b610f5d8185610f37565b9350610f6d818560208601610a7c565b610f768161083a565b840191505092915050565b6000604082019050610f9660008301856109c9565b8181036020830152610fa88184610f48565b90509392505050565b7f547279696e6720746f207769746864726177206d6f7265206d6f6e657920746860008201527f616e2074686520636f6e7472616374206861732e000000000000000000000000602082015250565b600061100d603483610f37565b915061101882610fb1565b604082019050919050565b6000602082019050818103600083015261103c81611000565b9050919050565b600081905092915050565b50565b600061105e600083611043565b91506110698261104e565b600082019050919050565b600061107f82611051565b9150819050919050565b7f4661696c656420746f207769746864726177206d6f6e65792066726f6d20636f60008201527f6e74726163742e00000000000000000000000000000000000000000000000000602082015250565b60006110e5602783610f37565b91506110f082611089565b604082019050919050565b60006020820190508181036000830152611114816110d8565b9050919050565b600060208201905081810360008301526111358184610f48565b905092915050565b61114681610a3f565b82525050565b600060608201905081810360008301526111668186610f48565b9050611175602083018561113d565b81810360408301526111878184610f48565b9050949350505050565b600060608201905081810360008301526111ab8186610f48565b90506111ba602083018561113d565b6111c760408301846109c9565b949350505050565b600060408201905081810360008301526111e98185610f48565b90506111f860208301846109c9565b939250505056fe466f7220636f6e7472616374202573202c4e756d626572206f66207761766573202564a264697066735822122031329948264e1f370f8ee6cf2783db6facf34979e2de0d6e2c1d8f732a46cb4f64736f6c634300081100335468697320636f6e7472616374206465706c6f796564207375636365737366756c6c79",
  "linkReferences": {},
  "deployedLinkReferences": {}
}